:100000000C9461000C947E000C947E000C947E0095
:100010000C947E000C947E000C947E000C947E0068
:100020000C947E000C947E000C947E000C947E0058
:100030000C947E000C947E000C947E000C947E0048
:100040000C94EA010C947E000C947E000C947E00CB
:100050000C947E000C947E000C947E000C947E0028
:100060000C947E000C947E00000000002400270009
:100070002A0000000000250028002B0000000000DE
:1000800023002600290004040404040404040202DA
:100090000202020203030303030301020408102007
:1000A0004080010204081020010204081020000012
:1000B0000008000201000003040700000000000027
:1000C000000011241FBECFEFD8E0DEBFCDBF11E08E
:1000D000A0E0B1E0E4E1FAE002C005900D92A232A6
:1000E000B107D9F721E0A2E2B1E001C01D92A0332F
:1000F000B207E1F70E9434020C9408050C9400004A
:10010000833081F028F4813099F08230A9F008958D
:100110008730A9F08830C9F08430B1F48091800034
:100120008F7D03C0809180008F7780938000089539
:1001300084B58F7784BD089584B58F7DFBCF809182
:10014000B0008F778093B00008958091B0008F7DCC
:10015000F9CFCF93DF93282F30E0F901E255FF4F1D
:100160008491F901E656FF4FD491F901EA57FF4F08
:10017000C491CC23A1F081110E948000EC2FF0E00B
:10018000EE0FFF1FE458FF4FA591B491EC91ED23C2
:1001900081E090E009F480E0DF91CF91089580E064
:1001A00090E0FACF1F93CF93DF93282F30E0F9012F
:1001B000E255FF4F8491F901E656FF4FD491F901C2
:1001C000EA57FF4FC491CC23A9F0162F81110E944A
:1001D0008000EC2FF0E0EE0FFF1FEE58FF4FA591CF
:1001E000B4918FB7F894EC91111108C0D095DE232B
:1001F000DC938FBFDF91CF911F910895DE2BF8CF55
:10020000CF93DF9390E0FC01E656FF4F24918A578D
:100210009F4FFC0184918823D1F090E0880F991FB3
:10022000FC01E859FF4FA591B491FC01EE58FF4F36
:10023000C591D49161110EC09FB7F8948C91E22FB3
:10024000E0958E238C932881E223E8839FBFDF9182
:10025000CF9108958FB7F894EC91E22BEC938FBF78
:10026000F6CF3FB7F8948091270190912801A09193
:100270002901B0912A0126B5A89B05C02F3F19F08E
:100280000196A11DB11D3FBFBA2FA92F982F882716
:10029000BC01CD01620F711D811D911D42E0660FF1
:1002A000771F881F991F4A95D1F708958F929F92C3
:1002B000AF92BF92CF92DF92EF92FF926B017C01DF
:1002C0000E9431014B015C01C114D104E104F1042D
:1002D000B9F00E943101681979098A099B09683EC1
:1002E00073408105910580F321E0C21AD108E1082D
:1002F000F10888EE880E83E0981EA11CB11CE4CFA3
:10030000FF90EF90DF90CF90BF90AF909F908F9035
:1003100008958F929F92AF92BF92EF92FF920F93A8
:100320001F93CF93DF937C014B0180E480937C008B
:1003300080917A00806480937A0080917A0086FDB3
:10034000FCCF8091780060917900762F682F072E7E
:10035000000C880B990B611571058105910511F051
:100360000E949C04840101501109E401CC0FDD1F9F
:10037000CE0DDF1D092C000CAA08BB0810161106B3
:10038000F4F460E070E0CB01181419041A041B04A3
:1003900034F40E944D04A50194010E94A504660F47
:1003A000771FF701E60FF71F9A918A91208131811B
:1003B000398328839183808301501109DFCFDF9136
:1003C000CF911F910F91FF90EF90BF90AF909F90B2
:1003D0008F9008951F920F920FB60F9211242F93B2
:1003E0003F938F939F93AF93BF93809123019091FD
:1003F0002401A0912501B09126013091220123E032
:10040000230F2D3758F50196A11DB11D2093220110
:100410008093230190932401A0932501B09326019A
:100420008091270190912801A0912901B0912A0182
:100430000196A11DB11D8093270190932801A093DF
:100440002901B0932A01BF91AF919F918F913F9164
:100450002F910F900FBE0F901F90189526E8230F35
:100460000296A11DB11DD2CF789484B5826084BD5F
:1004700084B5816084BD85B5826085BD85B58160A8
:1004800085BD80916E00816080936E001092810026
:1004900080918100826080938100809181008160E1
:1004A00080938100809180008160809380008091A2
:1004B000B10084608093B1008091B000816080932E
:1004C000B00080917A00846080937A0080917A00F5
:1004D000826080937A0080917A00816080937A00B4
:1004E00080917A00806880937A001092C10061E068
:1004F0008DE00E94000161E08CE00E94000161E05B
:100500008BE00E94000161E08AE00E94000161E04E
:1005100087E00E94000160E089E00E94000160E045
:1005200088E00E94000161E086E00E94000161E035
:1005300085E00E94000161E084E00E94000161E02A
:100540008EE00E94000161E08FE00E94000161E006
:1005500080E10E94000161E081E10E94000161E010
:1005600082E10E94000161E083E10E94000166E0F7
:1005700070E088E091E00E94890164E070E084E12D
:1005800091E00E94890162E070E080E091E00E94C9
:10059000890135E0832E912CA12CB12C40E0E42E72
:1005A00040E0F42E80912E0190912F01892BF1F4DF
:1005B00062E370E080E090E00E9456010E944D04EA
:1005C000A50194010E94A50460932D0180911C0156
:1005D00090911D01059754F010921D0110921C017D
:1005E00064E070E084E191E00E948901E0912D01D6
:1005F000F0E0EE0FFF1FE85FFE4F60817181072E74
:10060000000C880B990B0E94560180910601909175
:100610000701039754F0109207011092060162E05F
:1006200070E080E091E00E94890180910401909146
:100630000501079754F0109205011092040166E03D
:1006400070E088E091E00E948901C0911C01D09186
:100650001D01CC0FDD1FFE01EC5EFE4F80819181FC
:1006600061E0019709F090C080E10E94D20068EE3D
:1006700073E080E090E00E94560161E087E00E9414
:10068000D20060E080E10E94D20060E081E10E943F
:10069000D20061E086E00E94D20068EE73E080E064
:1006A00090E00E94560161E085E00E94D20060E087
:1006B00086E00E94D20060E087E00E94D20060EDF8
:1006C00077E080E090E00E94560180912E019091A9
:1006D0002F01029709F060C061E08FE00E94D20014
:1006E00060E085E00E94D20061E089E00E94D200D3
:1006F00061E088E00E94D20089E00E94A900019791
:1007000029F488E00E94A9000197B1F389E00E94D2
:10071000A9008C0190932C0180932B0188E00E940A
:10072000A90010922F0110922E0160E08FE00E942C
:10073000D20061E08EE00E94D200C0910601D0910B
:100740000701CC0FDD1F61E0012B01F582E10E9462
:10075000D20061E08DE00E94D200C050DF4F68817E
:100760007981072E000C880B990B0E94560160E7D7
:1007700077E180E090E00E945601E114F10409F471
:1007800011CF0E9400000ECF81E16FCF83E10E9464
:10079000D20061E08CE0DFCF60E085E00E94D20013
:1007A00089E00E94A900019729F488E00E94A9002D
:1007B0000197B1F389E00E94A9008C0190932C016C
:1007C00080932B0188E00E94A900CC5EDE4F288137
:1007D00039812130310589F6012B69F461E082E12C
:1007E0000E94D20010922F0110922E0161E08DE044
:1007F0000E94D200C2CF892B09F0BFCF61E083E114
:10080000F7CF8F929F92AF92BF92CF92DF92EF92EB
:10081000FF92CF93DF93EC01688179818A819B817C
:10082000611571058105910521F464E279ED8BE58F
:1008300097E02DE133EF41E050E00E94A50449012B
:100840005A019B01AC01A7EAB1E40E94C4046B0108
:100850007C01ACEEB4EFA50194010E94D204C60E57
:10086000D71EE81EF91EF7FE06C081E0C81AD1089F
:10087000E10880E8F80AC882D982EA82FB82C701CF
:10088000B6019F77DF91CF91FF90EF90DF90CF90EF
:10089000BF90AF909F908F9008958F929F92AF924C
:1008A000BF92CF92DF92EF92FF9260911E01709102
:1008B0001F01809120019091210161157105810531
:1008C000910521F464E279ED8BE597E02DE133EFBA
:1008D00041E050E00E94A50449015A019B01AC018E
:1008E000A7EAB1E40E94C4046B017C01ACEEB4EF52
:1008F000A50194010E94D204C60ED71EE81EF91E5F
:10090000F7FE06C081E0C81AD108E10880E8F80ABD
:10091000C0921E01D0921F01E0922001F0922101AD
:10092000C701B6019F77FF90EF90DF90CF90BF9007
:10093000AF909F908F90089560931E0170931F0158
:1009400080932001909321010895052E97FB1EF4BA
:1009500000940E94BC0457FD07D00E94D70407FCF6
:1009600003D04EF40C94BC045095409530952195DD
:100970003F4F4F4F5F4F08959095809570956195CB
:100980007F4F8F4F9F4F08950E94F904A59F900DB0
:10099000B49F900DA49F800D911D11240895B7FF61
:1009A0000C94C4040E94C404821B930B0895A1E21A
:1009B0001A2EAA1BBB1BFD010DC0AA1FBB1FEE1FD9
:1009C000FF1FA217B307E407F50720F0A21BB30B24
:1009D000E40BF50B661F771F881F991F1A9469F7A0
:1009E00060957095809590959B01AC01BD01CF01FC
:1009F0000895A29FB001B39FC001A39F700D811DF8
:100A00001124911DB29F700D811D1124911D089517
:040A1000F894FFCF88
:100A1400E803D007FFFFFFFFA60EA00F9A10941162
:100A24008E1288130100010002000200FFFF010082
:020A34000000C0
:00000001FF
